{
  "contractName": "Payment",
  "abi": [
    {
      "inputs": [],
      "payable": false,
      "stateMutability": "nonpayable",
      "type": "constructor",
      "signature": "constructor"
    },
    {
      "anonymous": false,
      "inputs": [
        {
          "indexed": false,
          "name": "_transferTo",
          "type": "address"
        },
        {
          "indexed": false,
          "name": "_transferFrom",
          "type": "address"
        },
        {
          "indexed": false,
          "name": "amount",
          "type": "uint256"
        }
      ],
      "name": "TransferFund",
      "type": "event",
      "signature": "0x41f7a8a1a70f43ecf6769f65a9933ba3370058d8e3422511a890553ba75ff3e8"
    },
    {
      "constant": false,
      "inputs": [
        {
          "name": "_transferTo",
          "type": "address"
        }
      ],
      "name": "transferFund",
      "outputs": [
        {
          "name": "",
          "type": "bool"
        }
      ],
      "payable": true,
      "stateMutability": "payable",
      "type": "function",
      "signature": "0xcd4558fd"
    },
    {
      "constant": false,
      "inputs": [],
      "name": "getBalanceOfCurrentAccount",
      "outputs": [
        {
          "name": "",
          "type": "uint256"
        }
      ],
      "payable": true,
      "stateMutability": "payable",
      "type": "function",
      "signature": "0xeba1877b"
    }
  ],
  "bytecode": "0x608060405234801561001057600080fd5b50336000806101000a81548173ffffffffffffffffffffffffffffffffffffffff021916908373ffffffffffffffffffffffffffffffffffffffff1602179055506102c8806100606000396000f3fe608060405260043610610046576000357c010000000000000000000000000000000000000000000000000000000090048063cd4558fd1461004b578063eba1877b146100a7575b600080fd5b61008d6004803603602081101561006157600080fd5b81019080803573ffffffffffffffffffffffffffffffffffffffff1690602001909291905050506100c5565b604051808215151515815260200191505060405180910390f35b6100af61025c565b6040518082815260200191505060405180910390f35b600081600160006101000a81548173ffffffffffffffffffffffffffffffffffffffff021916908373ffffffffffffffffffffffffffffffffffffffff160217905550600160009054906101000a900473ffffffffffffffffffffffffffffffffffffffff1673ffffffffffffffffffffffffffffffffffffffff166108fc349081150290604051600060405180830381858888f19350505050158015610170573d6000803e3d6000fd5b507f41f7a8a1a70f43ecf6769f65a9933ba3370058d8e3422511a890553ba75ff3e8600160009054906101000a900473ffffffffffffffffffffffffffffffffffffffff166000809054906101000a900473ffffffffffffffffffffffffffffffffffffffff1634604051808473ffffffffffffffffffffffffffffffffffffffff1673ffffffffffffffffffffffffffffffffffffffff1681526020018373ffffffffffffffffffffffffffffffffffffffff1673ffffffffffffffffffffffffffffffffffffffff168152602001828152602001935050505060405180910390a160019050919050565b60008060009054906101000a900473ffffffffffffffffffffffffffffffffffffffff1673ffffffffffffffffffffffffffffffffffffffff163190509056fea165627a7a723058204ad86fc54a8f7a5a8008283d16873f8f007257b909873ea346250c58d87228fa0029",
  "source": "pragma solidity 0.5.3;\r\n\r\ncontract Payment {\r\n    address transferFrom;\r\n    address payable transferTo;\r\n    uint paymentAmount;\r\n    \r\n    constructor() public {\r\n        transferFrom = msg.sender;\r\n    }\r\n\r\n    event TransferFund(address payable _transferTo, address _transferFrom, uint amount);\r\n    \r\n    function transferFund(address payable _transferTo) public payable returns (bool){\r\n        transferTo = _transferTo;\r\n        transferTo.transfer(msg.value);\r\n        emit TransferFund(transferTo, transferFrom, msg.value);\r\n        return true;\r\n    }\r\n    function getBalanceOfCurrentAccount() public payable returns (uint) {\r\n        return transferFrom.balance;\r\n    }\r\n}",
  "sourcePath": "C:/Users/abner/Documents/Workspace/blockchain/taller-angular-blockchain/blockchain/contracts/Payment.sol",
  "compiler": {
    "name": "solc",
    "version": "0.5.3+commit.10d17f24.Emscripten.clang"
  },
  "schemaVersion": "3.0.2",
  "updatedAt": "2019-03-04T03:29:39.505Z",
  "devdoc": {
    "methods": {}
  },
  "userdoc": {
    "methods": {}
  }
}